{"contracts/GnosisSafeProxyFactory.sol":{"GnosisSafeProxyFactory":{"abi":[{"anonymous":false,"inputs":[{"indexed":false,"internalType":"contract GnosisSafeProxy","name":"proxy","type":"address"},{"indexed":false,"internalType":"address","name":"singleton","type":"address"}],"name":"ProxyCreation","type":"event"},{"inputs":[{"internalType":"address","name":"_singleton","type":"address"},{"internalType":"bytes","name":"initializer","type":"bytes"},{"internalType":"uint256","name":"saltNonce","type":"uint256"}],"name":"calculateCreateProxyWithNonceAddress","outputs":[{"internalType":"contract GnosisSafeProxy","name":"proxy","type":"address"}],"stateMutability":"nonpayable","type":"function"},{"inputs":[{"internalType":"address","name":"singleton","type":"address"},{"internalType":"bytes","name":"data","type":"bytes"}],"name":"createProxy","outputs":[{"internalType":"contract GnosisSafeProxy","name":"proxy","type":"address"}],"stateMutability":"nonpayable","type":"function"},{"inputs":[{"internalType":"address","name":"_singleton","type":"address"},{"internalType":"bytes","name":"initializer","type":"bytes"},{"internalType":"uint256","name":"saltNonce","type":"uint256"},{"internalType":"contract IProxyCreationCallback","name":"callback","type":"address"}],"name":"createProxyWithCallback","outputs":[{"internalType":"contract GnosisSafeProxy","name":"proxy","type":"address"}],"stateMutability":"nonpayable","type":"function"},{"inputs":[{"internalType":"address","name":"_singleton","type":"address"},{"internalType":"bytes","name":"initializer","type":"bytes"},{"internalType":"uint256","name":"saltNonce","type":"uint256"}],"name":"createProxyWithNonce","outputs":[{"internalType":"contract GnosisSafeProxy","name":"proxy","type":"address"}],"stateMutability":"nonpayable","type":"function"},{"inputs":[],"name":"proxyCreationCode","outputs":[{"internalType":"bytes","name":"","type":"bytes"}],"stateMutability":"pure","type":"function"},{"inputs":[],"name":"proxyRuntimeCode","outputs":[{"internalType":"bytes","name":"","type":"bytes"}],"stateMutability":"pure","type":"function"}],"evm":{"bytecode":{"linkReferences":{},"object":"608060405234801561001057600080fd5b5061131f806100206000396000f3fe60806040523480156200001157600080fd5b50600436106200006a5760003560e01c80631688f0b9146200006f5780632500510e14620000a557806353e5d93514620000db57806361b69abd14620000fd578063addacc0f1462000133578063d18af54d1462000155575b600080fd5b6200008d600480360381019062000087919062000801565b6200018b565b6040516200009c9190620008e7565b60405180910390f35b620000c36004803603810190620000bd91906200096d565b62000205565b604051620000d29190620008e7565b60405180910390f35b620000e5620002ba565b604051620000f4919062000a76565b60405180910390f35b6200011b600480360381019062000115919062000a9a565b620002e7565b6040516200012a9190620008e7565b60405180910390f35b6200013d6200038c565b6040516200014c919062000a76565b60405180910390f35b6200017360048036038101906200016d919062000b45565b620003b9565b604051620001829190620008e7565b60405180910390f35b60006200019a848484620004af565b9050600083511115620001c35760008060008551602087016000865af103620001c257600080fd5b5b7f4f51faf6c4561ff95f067657e43439f0f856d97c04d9ec9070a6199ad418e2358185604051620001f692919062000be7565b60405180910390a19392505050565b6000620002588585858080601f016020809104026020016040519081016040528093929190818152602001838380828437600081840152601f19601f8201169050808301925050505050505084620004af565b9050806040516020016200026d919062000c64565b6040516020818303038152906040526040517f08c379a0000000000000000000000000000000000000000000000000000000008152600401620002b1919062000cde565b60405180910390fd5b606060405180602001620002ce90620005d0565b6020820181038252601f19601f82011660405250905090565b600082604051620002f890620005d0565b62000304919062000d02565b604051809103906000f08015801562000321573d6000803e3d6000fd5b5090506000825111156200034b5760008060008451602086016000865af1036200034a57600080fd5b5b7f4f51faf6c4561ff95f067657e43439f0f856d97c04d9ec9070a6199ad418e23581846040516200037e92919062000be7565b60405180910390a192915050565b606060405180602001620003a090620005de565b6020820181038252601f19601f82011660405250905090565b6000808383604051602001620003d192919062000d9b565b6040516020818303038152906040528051906020012060001c9050620003f98686836200018b565b9150600073ffffffffffffffffffffffffffffffffffffffff168373ffffffffffffffffffffffffffffffffffffffff1614620004a6578273ffffffffffffffffffffffffffffffffffffffff16631e52b518838888886040518563ffffffff1660e01b815260040162000471949392919062000ddc565b600060405180830381600087803b1580156200048c57600080fd5b505af1158015620004a1573d6000803e3d6000fd5b505050505b50949350505050565b600080838051906020012083604051602001620004ce92919062000e5f565b604051602081830303815290604052805190602001209050600060405180602001620004fa90620005d0565b6020820181038252601f19601f820116604052508673ffffffffffffffffffffffffffffffffffffffff166040516020016200053892919062000ed1565b6040516020818303038152906040529050818151826020016000f59250600073ffffffffffffffffffffffffffffffffffffffff168373ffffffffffffffffffffffffffffffffffffffff1603620005c7576040517f08c379a0000000000000000000000000000000000000000000000000000000008152600401620005be9062000f4d565b60405180910390fd5b50509392505050565b6102d18062000f7083390190565b60a9806200124183390190565b6000604051905090565b600080fd5b600080fd5b600073ffffffffffffffffffffffffffffffffffffffff82169050919050565b60006200062c82620005ff565b9050919050565b6200063e816200061f565b81146200064a57600080fd5b50565b6000813590506200065e8162000633565b92915050565b600080fd5b600080fd5b6000601f19601f8301169050919050565b7f4e487b7100000000000000000000000000000000000000000000000000000000600052604160045260246000fd5b620006b9826200066e565b810181811067ffffffffffffffff82111715620006db57620006da6200067f565b5b80604052505050565b6000620006f0620005eb565b9050620006fe8282620006ae565b919050565b600067ffffffffffffffff8211156200072157620007206200067f565b5b6200072c826200066e565b9050602081019050919050565b82818337600083830152505050565b60006200075f620007598462000703565b620006e4565b9050828152602081018484840111156200077e576200077d62000669565b5b6200078b84828562000739565b509392505050565b600082601f830112620007ab57620007aa62000664565b5b8135620007bd84826020860162000748565b91505092915050565b6000819050919050565b620007db81620007c6565b8114620007e757600080fd5b50565b600081359050620007fb81620007d0565b92915050565b6000806000606084860312156200081d576200081c620005f5565b5b60006200082d868287016200064d565b935050602084013567ffffffffffffffff811115620008515762000850620005fa565b5b6200085f8682870162000793565b92505060406200087286828701620007ea565b9150509250925092565b6000819050919050565b6000620008a7620008a16200089b84620005ff565b6200087c565b620005ff565b9050919050565b6000620008bb8262000886565b9050919050565b6000620008cf82620008ae565b9050919050565b620008e181620008c2565b82525050565b6000602082019050620008fe6000830184620008d6565b92915050565b600080fd5b600080fd5b60008083601f84011262000927576200092662000664565b5b8235905067ffffffffffffffff81111562000947576200094662000904565b5b60208301915083600182028301111562000966576200096562000909565b5b9250929050565b600080600080606085870312156200098a5762000989620005f5565b5b60006200099a878288016200064d565b945050602085013567ffffffffffffffff811115620009be57620009bd620005fa565b5b620009cc878288016200090e565b93509350506040620009e187828801620007ea565b91505092959194509250565b600081519050919050565b600082825260208201905092915050565b60005b8381101562000a2957808201518184015260208101905062000a0c565b60008484015250505050565b600062000a4282620009ed565b62000a4e8185620009f8565b935062000a6081856020860162000a09565b62000a6b816200066e565b840191505092915050565b6000602082019050818103600083015262000a92818462000a35565b905092915050565b6000806040838503121562000ab45762000ab3620005f5565b5b600062000ac4858286016200064d565b925050602083013567ffffffffffffffff81111562000ae85762000ae7620005fa565b5b62000af68582860162000793565b9150509250929050565b600062000b0d826200061f565b9050919050565b62000b1f8162000b00565b811462000b2b57600080fd5b50565b60008135905062000b3f8162000b14565b92915050565b6000806000806080858703121562000b625762000b61620005f5565b5b600062000b72878288016200064d565b945050602085013567ffffffffffffffff81111562000b965762000b95620005fa565b5b62000ba48782880162000793565b935050604062000bb787828801620007ea565b925050606062000bca8782880162000b2e565b91505092959194509250565b62000be1816200061f565b82525050565b600060408201905062000bfe6000830185620008d6565b62000c0d602083018462000bd6565b9392505050565b60008160601b9050919050565b600062000c2e8262000c14565b9050919050565b600062000c428262000c21565b9050919050565b62000c5e62000c5882620008c2565b62000c35565b82525050565b600062000c72828462000c49565b60148201915081905092915050565b600081519050919050565b600082825260208201905092915050565b600062000caa8262000c81565b62000cb6818562000c8c565b935062000cc881856020860162000a09565b62000cd3816200066e565b840191505092915050565b6000602082019050818103600083015262000cfa818462000c9d565b905092915050565b600060208201905062000d19600083018462000bd6565b92915050565b6000819050919050565b62000d3e62000d3882620007c6565b62000d1f565b82525050565b600062000d518262000886565b9050919050565b600062000d658262000d44565b9050919050565b600062000d798262000c21565b9050919050565b62000d9562000d8f8262000d58565b62000d6c565b82525050565b600062000da9828562000d29565b60208201915062000dbb828462000d80565b6014820191508190509392505050565b62000dd681620007c6565b82525050565b600060808201905062000df36000830187620008d6565b62000e02602083018662000bd6565b818103604083015262000e16818562000a35565b905062000e27606083018462000dcb565b95945050505050565b6000819050919050565b6000819050919050565b62000e5962000e538262000e30565b62000e3a565b82525050565b600062000e6d828562000e44565b60208201915062000e7f828462000d29565b6020820191508190509392505050565b600081905092915050565b600062000ea782620009ed565b62000eb3818562000e8f565b935062000ec581856020860162000a09565b80840191505092915050565b600062000edf828562000e9a565b915062000eed828462000d29565b6020820191508190509392505050565b7f437265617465322063616c6c206661696c656400000000000000000000000000600082015250565b600062000f3560138362000c8c565b915062000f428262000efd565b602082019050919050565b6000602082019050818103600083015262000f688162000f26565b905091905056fe608060405234801561001057600080fd5b506040516102d13803806102d18339818101604052810190610032919061014a565b600073ffffffffffffffffffffffffffffffffffffffff168173ffffffffffffffffffffffffffffffffffffffff16036100a1576040517f08c379a0000000000000000000000000000000000000000000000000000000008152600401610098906101fa565b60405180910390fd5b806000806101000a81548173ffffffffffffffffffffffffffffffffffffffff021916908373ffffffffffffffffffffffffffffffffffffffff1602179055505061021a565b600080fd5b600073ffffffffffffffffffffffffffffffffffffffff82169050919050565b6000610117826100ec565b9050919050565b6101278161010c565b811461013257600080fd5b50565b6000815190506101448161011e565b92915050565b6000602082840312156101605761015f6100e7565b5b600061016e84828501610135565b91505092915050565b600082825260208201905092915050565b7f496e76616c69642073696e676c65746f6e20616464726573732070726f76696460008201527f6564000000000000000000000000000000000000000000000000000000000000602082015250565b60006101e4602283610177565b91506101ef82610188565b604082019050919050565b60006020820190508181036000830152610213816101d7565b9050919050565b60a9806102286000396000f3fe608060405273ffffffffffffffffffffffffffffffffffffffff600054167fa619486e0000000000000000000000000000000000000000000000000000000060003503604f578060005260206000f35b3660008037600080366000845af43d6000803e60008103606e573d6000fd5b3d6000f3fea26469706673582212209d5661a637949c1432c65a4319c065d0806918a55387ad45e4509b1f35a9720064736f6c63430008130033608060405273ffffffffffffffffffffffffffffffffffffffff600054167fa619486e0000000000000000000000000000000000000000000000000000000060003503604f578060005260206000f35b3660008037600080366000845af43d6000803e60008103606e573d6000fd5b3d6000f3fea26469706673582212209d5661a637949c1432c65a4319c065d0806918a55387ad45e4509b1f35a9720064736f6c63430008130033a2646970667358221220061d2642c9b819622672f6a75b2660afe31d4456807f8cdb526822b71ed022af64736f6c63430008130033","opcodes":"PUSH1 0x80 PUSH1 0x40 MSTORE CALLVALUE DUP1 ISZERO PUSH2 0x10 JUMPI PUSH1 0x0 DUP1 REVERT JUMPDEST POP PUSH2 0x131F DUP1 PUSH2 0x20 PUSH1 0x0 CODECOPY PUSH1 0x0 RETURN INVALID PUSH1 0x80 PUSH1 0x40 MSTORE CALLVALUE DUP1 ISZERO PUSH3 0x11 JUMPI PUSH1 0x0 DUP1 REVERT JUMPDEST POP PUSH1 0x4 CALLDATASIZE LT PUSH3 0x6A JUMPI PUSH1 0x0 CALLDATALOAD PUSH1 0xE0 SHR DUP1 PUSH4 0x1688F0B9 EQ PUSH3 0x6F JUMPI DUP1 PUSH4 0x2500510E EQ PUSH3 0xA5 JUMPI DUP1 PUSH4 0x53E5D935 EQ PUSH3 0xDB JUMPI DUP1 PUSH4 0x61B69ABD EQ PUSH3 0xFD JUMPI DUP1 PUSH4 0xADDACC0F EQ PUSH3 0x133 JUMPI DUP1 PUSH4 0xD18AF54D EQ PUSH3 0x155 JUMPI JUMPDEST PUSH1 0x0 DUP1 REVERT JUMPDEST PUSH3 0x8D PUSH1 0x4 DUP1 CALLDATASIZE SUB DUP2 ADD SWAP1 PUSH3 0x87 SWAP2 SWAP1 PUSH3 0x801 JUMP JUMPDEST PUSH3 0x18B JUMP JUMPDEST PUSH1 0x40 MLOAD PUSH3 0x9C SWAP2 SWAP1 PUSH3 0x8E7 JUMP JUMPDEST PUSH1 0x40 MLOAD DUP1 SWAP2 SUB SWAP1 RETURN JUMPDEST PUSH3 0xC3 PUSH1 0x4 DUP1 CALLDATASIZE SUB DUP2 ADD SWAP1 PUSH3 0xBD SWAP2 SWAP1 PUSH3 0x96D JUMP JUMPDEST PUSH3 0x205 JUMP JUMPDEST PUSH1 0x40 MLOAD PUSH3 0xD2 SWAP2 SWAP1 PUSH3 0x8E7 JUMP JUMPDEST PUSH1 0x40 MLOAD DUP1 SWAP2 SUB SWAP1 RETURN JUMPDEST PUSH3 0xE5 PUSH3 0x2BA JUMP JUMPDEST PUSH1 0x40 MLOAD PUSH3 0xF4 SWAP2 SWAP1 PUSH3 0xA76 JUMP JUMPDEST PUSH1 0x40 MLOAD DUP1 SWAP2 SUB SWAP1 RETURN JUMPDEST PUSH3 0x11B PUSH1 0x4 DUP1 CALLDATASIZE SUB DUP2 ADD SWAP1 PUSH3 0x115 SWAP2 SWAP1 PUSH3 0xA9A JUMP JUMPDEST PUSH3 0x2E7 JUMP JUMPDEST PUSH1 0x40 MLOAD PUSH3 0x12A SWAP2 SWAP1 PUSH3 0x8E7 JUMP JUMPDEST PUSH1 0x40 MLOAD DUP1 SWAP2 SUB SWAP1 RETURN JUMPDEST PUSH3 0x13D PUSH3 0x38C JUMP JUMPDEST PUSH1 0x40 MLOAD PUSH3 0x14C SWAP2 SWAP1 PUSH3 0xA76 JUMP JUMPDEST PUSH1 0x40 MLOAD DUP1 SWAP2 SUB SWAP1 RETURN JUMPDEST PUSH3 0x173 PUSH1 0x4 DUP1 CALLDATASIZE SUB DUP2 ADD SWAP1 PUSH3 0x16D SWAP2 SWAP1 PUSH3 0xB45 JUMP JUMPDEST PUSH3 0x3B9 JUMP JUMPDEST PUSH1 0x40 MLOAD PUSH3 0x182 SWAP2 SWAP1 PUSH3 0x8E7 JUMP JUMPDEST PUSH1 0x40 MLOAD DUP1 SWAP2 SUB SWAP1 RETURN JUMPDEST PUSH1 0x0 PUSH3 0x19A DUP5 DUP5 DUP5 PUSH3 0x4AF JUMP JUMPDEST SWAP1 POP PUSH1 0x0 DUP4 MLOAD GT ISZERO PUSH3 0x1C3 JUMPI PUSH1 0x0 DUP1 PUSH1 0x0 DUP6 MLOAD PUSH1 0x20 DUP8 ADD PUSH1 0x0 DUP7 GAS CALL SUB PUSH3 0x1C2 JUMPI PUSH1 0x0 DUP1 REVERT JUMPDEST JUMPDEST PUSH32 0x4F51FAF6C4561FF95F067657E43439F0F856D97C04D9EC9070A6199AD418E235 DUP2 DUP6 PUSH1 0x40 MLOAD PUSH3 0x1F6 SWAP3 SWAP2 SWAP1 PUSH3 0xBE7 JUMP JUMPDEST PUSH1 0x40 MLOAD DUP1 SWAP2 SUB SWAP1 LOG1 SWAP4 SWAP3 POP POP POP JUMP JUMPDEST PUSH1 0x0 PUSH3 0x258 DUP6 DUP6 DUP6 DUP1 DUP1 PUSH1 0x1F ADD PUSH1 0x20 DUP1 SWAP2 DIV MUL PUSH1 0x20 ADD PUSH1 0x40 MLOAD SWAP1 DUP2 ADD PUSH1 0x40 MSTORE DUP1 SWAP4 SWAP3 SWAP2 SWAP1 DUP2 DUP2 MSTORE PUSH1 0x20 ADD DUP4 DUP4 DUP1 DUP3 DUP5 CALLDATACOPY PUSH1 0x0 DUP2 DUP5 ADD MSTORE PUSH1 0x1F NOT PUSH1 0x1F DUP3 ADD AND SWAP1 POP DUP1 DUP4 ADD SWAP3 POP POP POP POP POP POP POP DUP5 PUSH3 0x4AF JUMP JUMPDEST SWAP1 POP DUP1 PUSH1 0x40 MLOAD PUSH1 0x20 ADD PUSH3 0x26D SWAP2 SWAP1 PUSH3 0xC64 JUMP JUMPDEST PUSH1 0x40 MLOAD PUSH1 0x20 DUP2 DUP4 SUB SUB DUP2 MSTORE SWAP1 PUSH1 0x40 MSTORE PUSH1 0x40 MLOAD PUSH32 0x8C379A000000000000000000000000000000000000000000000000000000000 DUP2 MSTORE PUSH1 0x4 ADD PUSH3 0x2B1 SWAP2 SWAP1 PUSH3 0xCDE JUMP JUMPDEST PUSH1 0x40 MLOAD DUP1 SWAP2 SUB SWAP1 REVERT JUMPDEST PUSH1 0x60 PUSH1 0x40 MLOAD DUP1 PUSH1 0x20 ADD PUSH3 0x2CE SWAP1 PUSH3 0x5D0 JUMP JUMPDEST PUSH1 0x20 DUP3 ADD DUP2 SUB DUP3 MSTORE PUSH1 0x1F NOT PUSH1 0x1F DUP3 ADD AND PUSH1 0x40 MSTORE POP SWAP1 POP SWAP1 JUMP JUMPDEST PUSH1 0x0 DUP3 PUSH1 0x40 MLOAD PUSH3 0x2F8 SWAP1 PUSH3 0x5D0 JUMP JUMPDEST PUSH3 0x304 SWAP2 SWAP1 PUSH3 0xD02 JUMP JUMPDEST PUSH1 0x40 MLOAD DUP1 SWAP2 SUB SWAP1 PUSH1 0x0 CREATE DUP1 ISZERO DUP1 ISZERO PUSH3 0x321 JUMPI RETURNDATASIZE PUSH1 0x0 DUP1 RETURNDATACOPY RETURNDATASIZE PUSH1 0x0 REVERT JUMPDEST POP SWAP1 POP PUSH1 0x0 DUP3 MLOAD GT ISZERO PUSH3 0x34B JUMPI PUSH1 0x0 DUP1 PUSH1 0x0 DUP5 MLOAD PUSH1 0x20 DUP7 ADD PUSH1 0x0 DUP7 GAS CALL SUB PUSH3 0x34A JUMPI PUSH1 0x0 DUP1 REVERT JUMPDEST JUMPDEST PUSH32 0x4F51FAF6C4561FF95F067657E43439F0F856D97C04D9EC9070A6199AD418E235 DUP2 DUP5 PUSH1 0x40 MLOAD PUSH3 0x37E SWAP3 SWAP2 SWAP1 PUSH3 0xBE7 JUMP JUMPDEST PUSH1 0x40 MLOAD DUP1 SWAP2 SUB SWAP1 LOG1 SWAP3 SWAP2 POP POP JUMP JUMPDEST PUSH1 0x60 PUSH1 0x40 MLOAD DUP1 PUSH1 0x20 ADD PUSH3 0x3A0 SWAP1 PUSH3 0x5DE JUMP JUMPDEST PUSH1 0x20 DUP3 ADD DUP2 SUB DUP3 MSTORE PUSH1 0x1F NOT PUSH1 0x1F DUP3 ADD AND PUSH1 0x40 MSTORE POP SWAP1 POP SWAP1 JUMP JUMPDEST PUSH1 0x0 DUP1 DUP4 DUP4 PUSH1 0x40 MLOAD PUSH1 0x20 ADD PUSH3 0x3D1 SWAP3 SWAP2 SWAP1 PUSH3 0xD9B JUMP JUMPDEST PUSH1 0x40 MLOAD PUSH1 0x20 DUP2 DUP4 SUB SUB DUP2 MSTORE SWAP1 PUSH1 0x40 MSTORE DUP1 MLOAD SWAP1 PUSH1 0x20 ADD KECCAK256 PUSH1 0x0 SHR SWAP1 POP PUSH3 0x3F9 DUP7 DUP7 DUP4 PUSH3 0x18B JUMP JUMPDEST SWAP2 POP PUSH1 0x0 PUSH20 0xFFFFFFFFFFFFFFFFFFFFFFFFFFFFFFFFFFFFFFFF AND DUP4 PUSH20 0xFFFFFFFFFFFFFFFFFFFFFFFFFFFFFFFFFFFFFFFF AND EQ PUSH3 0x4A6 JUMPI DUP3 PUSH20 0xFFFFFFFFFFFFFFFFFFFFFFFFFFFFFFFFFFFFFFFF AND PUSH4 0x1E52B518 DUP4 DUP9 DUP9 DUP9 PUSH1 0x40 MLOAD DUP6 PUSH4 0xFFFFFFFF AND PUSH1 0xE0 SHL DUP2 MSTORE PUSH1 0x4 ADD PUSH3 0x471 SWAP5 SWAP4 SWAP3 SWAP2 SWAP1 PUSH3 0xDDC JUMP JUMPDEST PUSH1 0x0 PUSH1 0x40 MLOAD DUP1 DUP4 SUB DUP2 PUSH1 0x0 DUP8 DUP1 EXTCODESIZE ISZERO DUP1 ISZERO PUSH3 0x48C JUMPI PUSH1 0x0 DUP1 REVERT JUMPDEST POP GAS CALL ISZERO DUP1 ISZERO PUSH3 0x4A1 JUMPI RETURNDATASIZE PUSH1 0x0 DUP1 RETURNDATACOPY RETURNDATASIZE PUSH1 0x0 REVERT JUMPDEST POP POP POP POP JUMPDEST POP SWAP5 SWAP4 POP POP POP POP JUMP JUMPDEST PUSH1 0x0 DUP1 DUP4 DUP1 MLOAD SWAP1 PUSH1 0x20 ADD KECCAK256 DUP4 PUSH1 0x40 MLOAD PUSH1 0x20 ADD PUSH3 0x4CE SWAP3 SWAP2 SWAP1 PUSH3 0xE5F JUMP JUMPDEST PUSH1 0x40 MLOAD PUSH1 0x20 DUP2 DUP4 SUB SUB DUP2 MSTORE SWAP1 PUSH1 0x40 MSTORE DUP1 MLOAD SWAP1 PUSH1 0x20 ADD KECCAK256 SWAP1 POP PUSH1 0x0 PUSH1 0x40 MLOAD DUP1 PUSH1 0x20 ADD PUSH3 0x4FA SWAP1 PUSH3 0x5D0 JUMP JUMPDEST PUSH1 0x20 DUP3 ADD DUP2 SUB DUP3 MSTORE PUSH1 0x1F NOT PUSH1 0x1F DUP3 ADD AND PUSH1 0x40 MSTORE POP DUP7 PUSH20 0xFFFFFFFFFFFFFFFFFFFFFFFFFFFFFFFFFFFFFFFF AND PUSH1 0x40 MLOAD PUSH1 0x20 ADD PUSH3 0x538 SWAP3 SWAP2 SWAP1 PUSH3 0xED1 JUMP JUMPDEST PUSH1 0x40 MLOAD PUSH1 0x20 DUP2 DUP4 SUB SUB DUP2 MSTORE SWAP1 PUSH1 0x40 MSTORE SWAP1 POP DUP2 DUP2 MLOAD DUP3 PUSH1 0x20 ADD PUSH1 0x0 CREATE2 SWAP3 POP PUSH1 0x0 PUSH20 0xFFFFFFFFFFFFFFFFFFFFFFFFFFFFFFFFFFFFFFFF AND DUP4 PUSH20 0xFFFFFFFFFFFFFFFFFFFFFFFFFFFFFFFFFFFFFFFF AND SUB PUSH3 0x5C7 JUMPI PUSH1 0x40 MLOAD PUSH32 0x8C379A000000000000000000000000000000000000000000000000000000000 DUP2 MSTORE PUSH1 0x4 ADD PUSH3 0x5BE SWAP1 PUSH3 0xF4D JUMP JUMPDEST PUSH1 0x40 MLOAD DUP1 SWAP2 SUB SWAP1 REVERT JUMPDEST POP POP SWAP4 SWAP3 POP POP POP JUMP JUMPDEST PUSH2 0x2D1 DUP1 PUSH3 0xF70 DUP4 CODECOPY ADD SWAP1 JUMP JUMPDEST PUSH1 0xA9 DUP1 PUSH3 0x1241 DUP4 CODECOPY ADD SWAP1 JUMP JUMPDEST PUSH1 0x0 PUSH1 0x40 MLOAD SWAP1 POP SWAP1 JUMP JUMPDEST PUSH1 0x0 DUP1 REVERT JUMPDEST PUSH1 0x0 DUP1 REVERT JUMPDEST PUSH1 0x0 PUSH20 0xFFFFFFFFFFFFFFFFFFFFFFFFFFFFFFFFFFFFFFFF DUP3 AND SWAP1 POP SWAP2 SWAP1 POP JUMP JUMPDEST PUSH1 0x0 PUSH3 0x62C DUP3 PUSH3 0x5FF JUMP JUMPDEST SWAP1 POP SWAP2 SWAP1 POP JUMP JUMPDEST PUSH3 0x63E DUP2 PUSH3 0x61F JUMP JUMPDEST DUP2 EQ PUSH3 0x64A JUMPI PUSH1 0x0 DUP1 REVERT JUMPDEST POP JUMP JUMPDEST PUSH1 0x0 DUP2 CALLDATALOAD SWAP1 POP PUSH3 0x65E DUP2 PUSH3 0x633 JUMP JUMPDEST SWAP3 SWAP2 POP POP JUMP JUMPDEST PUSH1 0x0 DUP1 REVERT JUMPDEST PUSH1 0x0 DUP1 REVERT JUMPDEST PUSH1 0x0 PUSH1 0x1F NOT PUSH1 0x1F DUP4 ADD AND SWAP1 POP SWAP2 SWAP1 POP JUMP JUMPDEST PUSH32 0x4E487B7100000000000000000000000000000000000000000000000000000000 PUSH1 0x0 MSTORE PUSH1 0x41 PUSH1 0x4 MSTORE PUSH1 0x24 PUSH1 0x0 REVERT JUMPDEST PUSH3 0x6B9 DUP3 PUSH3 0x66E JUMP JUMPDEST DUP2 ADD DUP2 DUP2 LT PUSH8 0xFFFFFFFFFFFFFFFF DUP3 GT OR ISZERO PUSH3 0x6DB JUMPI PUSH3 0x6DA PUSH3 0x67F JUMP JUMPDEST JUMPDEST DUP1 PUSH1 0x40 MSTORE POP POP POP JUMP JUMPDEST PUSH1 0x0 PUSH3 0x6F0 PUSH3 0x5EB JUMP JUMPDEST SWAP1 POP PUSH3 0x6FE DUP3 DUP3 PUSH3 0x6AE JUMP JUMPDEST SWAP2 SWAP1 POP JUMP JUMPDEST PUSH1 0x0 PUSH8 0xFFFFFFFFFFFFFFFF DUP3 GT ISZERO PUSH3 0x721 JUMPI PUSH3 0x720 PUSH3 0x67F JUMP JUMPDEST JUMPDEST PUSH3 0x72C DUP3 PUSH3 0x66E JUMP JUMPDEST SWAP1 POP PUSH1 0x20 DUP2 ADD SWAP1 POP SWAP2 SWAP1 POP JUMP JUMPDEST DUP3 DUP2 DUP4 CALLDATACOPY PUSH1 0x0 DUP4 DUP4 ADD MSTORE POP POP POP JUMP JUMPDEST PUSH1 0x0 PUSH3 0x75F PUSH3 0x759 DUP5 PUSH3 0x703 JUMP JUMPDEST PUSH3 0x6E4 JUMP JUMPDEST SWAP1 POP DUP3 DUP2 MSTORE PUSH1 0x20 DUP2 ADD DUP5 DUP5 DUP5 ADD GT ISZERO PUSH3 0x77E JUMPI PUSH3 0x77D PUSH3 0x669 JUMP JUMPDEST JUMPDEST PUSH3 0x78B DUP5 DUP3 DUP6 PUSH3 0x739 JUMP JUMPDEST POP SWAP4 SWAP3 POP POP POP JUMP JUMPDEST PUSH1 0x0 DUP3 PUSH1 0x1F DUP4 ADD SLT PUSH3 0x7AB JUMPI PUSH3 0x7AA PUSH3 0x664 JUMP JUMPDEST JUMPDEST DUP2 CALLDATALOAD PUSH3 0x7BD DUP5 DUP3 PUSH1 0x20 DUP7 ADD PUSH3 0x748 JUMP JUMPDEST SWAP2 POP POP SWAP3 SWAP2 POP POP JUMP JUMPDEST PUSH1 0x0 DUP2 SWAP1 POP SWAP2 SWAP1 POP JUMP JUMPDEST PUSH3 0x7DB DUP2 PUSH3 0x7C6 JUMP JUMPDEST DUP2 EQ PUSH3 0x7E7 JUMPI PUSH1 0x0 DUP1 REVERT JUMPDEST POP JUMP JUMPDEST PUSH1 0x0 DUP2 CALLDATALOAD SWAP1 POP PUSH3 0x7FB DUP2 PUSH3 0x7D0 JUMP JUMPDEST SWAP3 SWAP2 POP POP JUMP JUMPDEST PUSH1 0x0 DUP1 PUSH1 0x0 PUSH1 0x60 DUP5 DUP7 SUB SLT ISZERO PUSH3 0x81D JUMPI PUSH3 0x81C PUSH3 0x5F5 JUMP JUMPDEST JUMPDEST PUSH1 0x0 PUSH3 0x82D DUP7 DUP3 DUP8 ADD PUSH3 0x64D JUMP JUMPDEST SWAP4 POP POP PUSH1 0x20 DUP5 ADD CALLDATALOAD PUSH8 0xFFFFFFFFFFFFFFFF DUP2 GT ISZERO PUSH3 0x851 JUMPI PUSH3 0x850 PUSH3 0x5FA JUMP JUMPDEST JUMPDEST PUSH3 0x85F DUP7 DUP3 DUP8 ADD PUSH3 0x793 JUMP JUMPDEST SWAP3 POP POP PUSH1 0x40 PUSH3 0x872 DUP7 DUP3 DUP8 ADD PUSH3 0x7EA JUMP JUMPDEST SWAP2 POP POP SWAP3 POP SWAP3 POP SWAP3 JUMP JUMPDEST PUSH1 0x0 DUP2 SWAP1 POP SWAP2 SWAP1 POP JUMP JUMPDEST PUSH1 0x0 PUSH3 0x8A7 PUSH3 0x8A1 PUSH3 0x89B DUP5 PUSH3 0x5FF JUMP JUMPDEST PUSH3 0x87C JUMP JUMPDEST PUSH3 0x5FF JUMP JUMPDEST SWAP1 POP SWAP2 SWAP1 POP JUMP JUMPDEST PUSH1 0x0 PUSH3 0x8BB DUP3 PUSH3 0x886 JUMP JUMPDEST SWAP1 POP SWAP2 SWAP1 POP JUMP JUMPDEST PUSH1 0x0 PUSH3 0x8CF DUP3 PUSH3 0x8AE JUMP JUMPDEST SWAP1 POP SWAP2 SWAP1 POP JUMP JUMPDEST PUSH3 0x8E1 DUP2 PUSH3 0x8C2 JUMP JUMPDEST DUP3 MSTORE POP POP JUMP JUMPDEST PUSH1 0x0 PUSH1 0x20 DUP3 ADD SWAP1 POP PUSH3 0x8FE PUSH1 0x0 DUP4 ADD DUP5 PUSH3 0x8D6 JUMP JUMPDEST SWAP3 SWAP2 POP POP JUMP JUMPDEST PUSH1 0x0 DUP1 REVERT JUMPDEST PUSH1 0x0 DUP1 REVERT JUMPDEST PUSH1 0x0 DUP1 DUP4 PUSH1 0x1F DUP5 ADD SLT PUSH3 0x927 JUMPI PUSH3 0x926 PUSH3 0x664 JUMP JUMPDEST JUMPDEST DUP3 CALLDATALOAD SWAP1 POP PUSH8 0xFFFFFFFFFFFFFFFF DUP2 GT ISZERO PUSH3 0x947 JUMPI PUSH3 0x946 PUSH3 0x904 JUMP JUMPDEST JUMPDEST PUSH1 0x20 DUP4 ADD SWAP2 POP DUP4 PUSH1 0x1 DUP3 MUL DUP4 ADD GT ISZERO PUSH3 0x966 JUMPI PUSH3 0x965 PUSH3 0x909 JUMP JUMPDEST JUMPDEST SWAP3 POP SWAP3 SWAP1 POP JUMP JUMPDEST PUSH1 0x0 DUP1 PUSH1 0x0 DUP1 PUSH1 0x60 DUP6 DUP8 SUB SLT ISZERO PUSH3 0x98A JUMPI PUSH3 0x989 PUSH3 0x5F5 JUMP JUMPDEST JUMPDEST PUSH1 0x0 PUSH3 0x99A DUP8 DUP3 DUP9 ADD PUSH3 0x64D JUMP JUMPDEST SWAP5 POP POP PUSH1 0x20 DUP6 ADD CALLDATALOAD PUSH8 0xFFFFFFFFFFFFFFFF DUP2 GT ISZERO PUSH3 0x9BE JUMPI PUSH3 0x9BD PUSH3 0x5FA JUMP JUMPDEST JUMPDEST PUSH3 0x9CC DUP8 DUP3 DUP9 ADD PUSH3 0x90E JUMP JUMPDEST SWAP4 POP SWAP4 POP POP PUSH1 0x40 PUSH3 0x9E1 DUP8 DUP3 DUP9 ADD PUSH3 0x7EA JUMP JUMPDEST SWAP2 POP POP SWAP3 SWAP6 SWAP2 SWAP5 POP SWAP3 POP JUMP JUMPDEST PUSH1 0x0 DUP2 MLOAD SWAP1 POP SWAP2 SWAP1 POP JUMP JUMPDEST PUSH1 0x0 DUP3 DUP3 MSTORE PUSH1 0x20 DUP3 ADD SWAP1 POP SWAP3 SWAP2 POP POP JUMP JUMPDEST PUSH1 0x0 JUMPDEST DUP4 DUP2 LT ISZERO PUSH3 0xA29 JUMPI DUP1 DUP3 ADD MLOAD DUP2 DUP5 ADD MSTORE PUSH1 0x20 DUP2 ADD SWAP1 POP PUSH3 0xA0C JUMP JUMPDEST PUSH1 0x0 DUP5 DUP5 ADD MSTORE POP POP POP POP JUMP JUMPDEST PUSH1 0x0 PUSH3 0xA42 DUP3 PUSH3 0x9ED JUMP JUMPDEST PUSH3 0xA4E DUP2 DUP6 PUSH3 0x9F8 JUMP JUMPDEST SWAP4 POP PUSH3 0xA60 DUP2 DUP6 PUSH1 0x20 DUP7 ADD PUSH3 0xA09 JUMP JUMPDEST PUSH3 0xA6B DUP2 PUSH3 0x66E JUMP JUMPDEST DUP5 ADD SWAP2 POP POP SWAP3 SWAP2 POP POP JUMP JUMPDEST PUSH1 0x0 PUSH1 0x20 DUP3 ADD SWAP1 POP DUP2 DUP2 SUB PUSH1 0x0 DUP4 ADD MSTORE PUSH3 0xA92 DUP2 DUP5 PUSH3 0xA35 JUMP JUMPDEST SWAP1 POP SWAP3 SWAP2 POP POP JUMP JUMPDEST PUSH1 0x0 DUP1 PUSH1 0x40 DUP4 DUP6 SUB SLT ISZERO PUSH3 0xAB4 JUMPI PUSH3 0xAB3 PUSH3 0x5F5 JUMP JUMPDEST JUMPDEST PUSH1 0x0 PUSH3 0xAC4 DUP6 DUP3 DUP7 ADD PUSH3 0x64D JUMP JUMPDEST SWAP3 POP POP PUSH1 0x20 DUP4 ADD CALLDATALOAD PUSH8 0xFFFFFFFFFFFFFFFF DUP2 GT ISZERO PUSH3 0xAE8 JUMPI PUSH3 0xAE7 PUSH3 0x5FA JUMP JUMPDEST JUMPDEST PUSH3 0xAF6 DUP6 DUP3 DUP7 ADD PUSH3 0x793 JUMP JUMPDEST SWAP2 POP POP SWAP3 POP SWAP3 SWAP1 POP JUMP JUMPDEST PUSH1 0x0 PUSH3 0xB0D DUP3 PUSH3 0x61F JUMP JUMPDEST SWAP1 POP SWAP2 SWAP1 POP JUMP JUMPDEST PUSH3 0xB1F DUP2 PUSH3 0xB00 JUMP JUMPDEST DUP2 EQ PUSH3 0xB2B JUMPI PUSH1 0x0 DUP1 REVERT JUMPDEST POP JUMP JUMPDEST PUSH1 0x0 DUP2 CALLDATALOAD SWAP1 POP PUSH3 0xB3F DUP2 PUSH3 0xB14 JUMP JUMPDEST SWAP3 SWAP2 POP POP JUMP JUMPDEST PUSH1 0x0 DUP1 PUSH1 0x0 DUP1 PUSH1 0x80 DUP6 DUP8 SUB SLT ISZERO PUSH3 0xB62 JUMPI PUSH3 0xB61 PUSH3 0x5F5 JUMP JUMPDEST JUMPDEST PUSH1 0x0 PUSH3 0xB72 DUP8 DUP3 DUP9 ADD PUSH3 0x64D JUMP JUMPDEST SWAP5 POP POP PUSH1 0x20 DUP6 ADD CALLDATALOAD PUSH8 0xFFFFFFFFFFFFFFFF DUP2 GT ISZERO PUSH3 0xB96 JUMPI PUSH3 0xB95 PUSH3 0x5FA JUMP JUMPDEST JUMPDEST PUSH3 0xBA4 DUP8 DUP3 DUP9 ADD PUSH3 0x793 JUMP JUMPDEST SWAP4 POP POP PUSH1 0x40 PUSH3 0xBB7 DUP8 DUP3 DUP9 ADD PUSH3 0x7EA JUMP JUMPDEST SWAP3 POP POP PUSH1 0x60 PUSH3 0xBCA DUP8 DUP3 DUP9 ADD PUSH3 0xB2E JUMP JUMPDEST SWAP2 POP POP SWAP3 SWAP6 SWAP2 SWAP5 POP SWAP3 POP JUMP JUMPDEST PUSH3 0xBE1 DUP2 PUSH3 0x61F JUMP JUMPDEST DUP3 MSTORE POP POP JUMP JUMPDEST PUSH1 0x0 PUSH1 0x40 DUP3 ADD SWAP1 POP PUSH3 0xBFE PUSH1 0x0 DUP4 ADD DUP6 PUSH3 0x8D6 JUMP JUMPDEST PUSH3 0xC0D PUSH1 0x20 DUP4 ADD DUP5 PUSH3 0xBD6 JUMP JUMPDEST SWAP4 SWAP3 POP POP POP JUMP JUMPDEST PUSH1 0x0 DUP2 PUSH1 0x60 SHL SWAP1 POP SWAP2 SWAP1 POP JUMP JUMPDEST PUSH1 0x0 PUSH3 0xC2E DUP3 PUSH3 0xC14 JUMP JUMPDEST SWAP1 POP SWAP2 SWAP1 POP JUMP JUMPDEST PUSH1 0x0 PUSH3 0xC42 DUP3 PUSH3 0xC21 JUMP JUMPDEST SWAP1 POP SWAP2 SWAP1 POP JUMP JUMPDEST PUSH3 0xC5E PUSH3 0xC58 DUP3 PUSH3 0x8C2 JUMP JUMPDEST PUSH3 0xC35 JUMP JUMPDEST DUP3 MSTORE POP POP JUMP JUMPDEST PUSH1 0x0 PUSH3 0xC72 DUP3 DUP5 PUSH3 0xC49 JUMP JUMPDEST PUSH1 0x14 DUP3 ADD SWAP2 POP DUP2 SWAP1 POP SWAP3 SWAP2 POP POP JUMP JUMPDEST PUSH1 0x0 DUP2 MLOAD SWAP1 POP SWAP2 SWAP1 POP JUMP JUMPDEST PUSH1 0x0 DUP3 DUP3 MSTORE PUSH1 0x20 DUP3 ADD SWAP1 POP SWAP3 SWAP2 POP POP JUMP JUMPDEST PUSH1 0x0 PUSH3 0xCAA DUP3 PUSH3 0xC81 JUMP JUMPDEST PUSH3 0xCB6 DUP2 DUP6 PUSH3 0xC8C JUMP JUMPDEST SWAP4 POP PUSH3 0xCC8 DUP2 DUP6 PUSH1 0x20 DUP7 ADD PUSH3 0xA09 JUMP JUMPDEST PUSH3 0xCD3 DUP2 PUSH3 0x66E JUMP JUMPDEST DUP5 ADD SWAP2 POP POP SWAP3 SWAP2 POP POP JUMP JUMPDEST PUSH1 0x0 PUSH1 0x20 DUP3 ADD SWAP1 POP DUP2 DUP2 SUB PUSH1 0x0 DUP4 ADD MSTORE PUSH3 0xCFA DUP2 DUP5 PUSH3 0xC9D JUMP JUMPDEST SWAP1 POP SWAP3 SWAP2 POP POP JUMP JUMPDEST PUSH1 0x0 PUSH1 0x20 DUP3 ADD SWAP1 POP PUSH3 0xD19 PUSH1 0x0 DUP4 ADD DUP5 PUSH3 0xBD6 JUMP JUMPDEST SWAP3 SWAP2 POP POP JUMP JUMPDEST PUSH1 0x0 DUP2 SWAP1 POP SWAP2 SWAP1 POP JUMP JUMPDEST PUSH3 0xD3E PUSH3 0xD38 DUP3 PUSH3 0x7C6 JUMP JUMPDEST PUSH3 0xD1F JUMP JUMPDEST DUP3 MSTORE POP POP JUMP JUMPDEST PUSH1 0x0 PUSH3 0xD51 DUP3 PUSH3 0x886 JUMP JUMPDEST SWAP1 POP SWAP2 SWAP1 POP JUMP JUMPDEST PUSH1 0x0 PUSH3 0xD65 DUP3 PUSH3 0xD44 JUMP JUMPDEST SWAP1 POP SWAP2 SWAP1 POP JUMP JUMPDEST PUSH1 0x0 PUSH3 0xD79 DUP3 PUSH3 0xC21 JUMP JUMPDEST SWAP1 POP SWAP2 SWAP1 POP JUMP JUMPDEST PUSH3 0xD95 PUSH3 0xD8F DUP3 PUSH3 0xD58 JUMP JUMPDEST PUSH3 0xD6C JUMP JUMPDEST DUP3 MSTORE POP POP JUMP JUMPDEST PUSH1 0x0 PUSH3 0xDA9 DUP3 DUP6 PUSH3 0xD29 JUMP JUMPDEST PUSH1 0x20 DUP3 ADD SWAP2 POP PUSH3 0xDBB DUP3 DUP5 PUSH3 0xD80 JUMP JUMPDEST PUSH1 0x14 DUP3 ADD SWAP2 POP DUP2 SWAP1 POP SWAP4 SWAP3 POP POP POP JUMP JUMPDEST PUSH3 0xDD6 DUP2 PUSH3 0x7C6 JUMP JUMPDEST DUP3 MSTORE POP POP JUMP JUMPDEST PUSH1 0x0 PUSH1 0x80 DUP3 ADD SWAP1 POP PUSH3 0xDF3 PUSH1 0x0 DUP4 ADD DUP8 PUSH3 0x8D6 JUMP JUMPDEST PUSH3 0xE02 PUSH1 0x20 DUP4 ADD DUP7 PUSH3 0xBD6 JUMP JUMPDEST DUP2 DUP2 SUB PUSH1 0x40 DUP4 ADD MSTORE PUSH3 0xE16 DUP2 DUP6 PUSH3 0xA35 JUMP JUMPDEST SWAP1 POP PUSH3 0xE27 PUSH1 0x60 DUP4 ADD DUP5 PUSH3 0xDCB JUMP JUMPDEST SWAP6 SWAP5 POP POP POP POP POP JUMP JUMPDEST PUSH1 0x0 DUP2 SWAP1 POP SWAP2 SWAP1 POP JUMP JUMPDEST PUSH1 0x0 DUP2 SWAP1 POP SWAP2 SWAP1 POP JUMP JUMPDEST PUSH3 0xE59 PUSH3 0xE53 DUP3 PUSH3 0xE30 JUMP JUMPDEST PUSH3 0xE3A JUMP JUMPDEST DUP3 MSTORE POP POP JUMP JUMPDEST PUSH1 0x0 PUSH3 0xE6D DUP3 DUP6 PUSH3 0xE44 JUMP JUMPDEST PUSH1 0x20 DUP3 ADD SWAP2 POP PUSH3 0xE7F DUP3 DUP5 PUSH3 0xD29 JUMP JUMPDEST PUSH1 0x20 DUP3 ADD SWAP2 POP DUP2 SWAP1 POP SWAP4 SWAP3 POP POP POP JUMP JUMPDEST PUSH1 0x0 DUP2 SWAP1 POP SWAP3 SWAP2 POP POP JUMP JUMPDEST PUSH1 0x0 PUSH3 0xEA7 DUP3 PUSH3 0x9ED JUMP JUMPDEST PUSH3 0xEB3 DUP2 DUP6 PUSH3 0xE8F JUMP JUMPDEST SWAP4 POP PUSH3 0xEC5 DUP2 DUP6 PUSH1 0x20 DUP7 ADD PUSH3 0xA09 JUMP JUMPDEST DUP1 DUP5 ADD SWAP2 POP POP SWAP3 SWAP2 POP POP JUMP JUMPDEST PUSH1 0x0 PUSH3 0xEDF DUP3 DUP6 PUSH3 0xE9A JUMP JUMPDEST SWAP2 POP PUSH3 0xEED DUP3 DUP5 PUSH3 0xD29 JUMP JUMPDEST PUSH1 0x20 DUP3 ADD SWAP2 POP DUP2 SWAP1 POP SWAP4 SWAP3 POP POP POP JUMP JUMPDEST PUSH32 0x437265617465322063616C6C206661696C656400000000000000000000000000 PUSH1 0x0 DUP3 ADD MSTORE POP JUMP JUMPDEST PUSH1 0x0 PUSH3 0xF35 PUSH1 0x13 DUP4 PUSH3 0xC8C JUMP JUMPDEST SWAP2 POP PUSH3 0xF42 DUP3 PUSH3 0xEFD JUMP JUMPDEST PUSH1 0x20 DUP3 ADD SWAP1 POP SWAP2 SWAP1 POP JUMP JUMPDEST PUSH1 0x0 PUSH1 0x20 DUP3 ADD SWAP1 POP DUP2 DUP2 SUB PUSH1 0x0 DUP4 ADD MSTORE PUSH3 0xF68 DUP2 PUSH3 0xF26 JUMP JUMPDEST SWAP1 POP SWAP2 SWAP1 POP JUMP INVALID PUSH1 0x80 PUSH1 0x40 MSTORE CALLVALUE DUP1 ISZERO PUSH2 0x10 JUMPI PUSH1 0x0 DUP1 REVERT JUMPDEST POP PUSH1 0x40 MLOAD PUSH2 0x2D1 CODESIZE SUB DUP1 PUSH2 0x2D1 DUP4 CODECOPY DUP2 DUP2 ADD PUSH1 0x40 MSTORE DUP2 ADD SWAP1 PUSH2 0x32 SWAP2 SWAP1 PUSH2 0x14A JUMP JUMPDEST PUSH1 0x0 PUSH20 0xFFFFFFFFFFFFFFFFFFFFFFFFFFFFFFFFFFFFFFFF AND DUP2 PUSH20 0xFFFFFFFFFFFFFFFFFFFFFFFFFFFFFFFFFFFFFFFF AND SUB PUSH2 0xA1 JUMPI PUSH1 0x40 MLOAD PUSH32 0x8C379A000000000000000000000000000000000000000000000000000000000 DUP2 MSTORE PUSH1 0x4 ADD PUSH2 0x98 SWAP1 PUSH2 0x1FA JUMP JUMPDEST PUSH1 0x40 MLOAD DUP1 SWAP2 SUB SWAP1 REVERT JUMPDEST DUP1 PUSH1 0x0 DUP1 PUSH2 0x100 EXP DUP2 SLOAD DUP2 PUSH20 0xFFFFFFFFFFFFFFFFFFFFFFFFFFFFFFFFFFFFFFFF MUL NOT AND SWAP1 DUP4 PUSH20 0xFFFFFFFFFFFFFFFFFFFFFFFFFFFFFFFFFFFFFFFF AND MUL OR SWAP1 SSTORE POP POP PUSH2 0x21A JUMP JUMPDEST PUSH1 0x0 DUP1 REVERT JUMPDEST PUSH1 0x0 PUSH20 0xFFFFFFFFFFFFFFFFFFFFFFFFFFFFFFFFFFFFFFFF DUP3 AND SWAP1 POP SWAP2 SWAP1 POP JUMP JUMPDEST PUSH1 0x0 PUSH2 0x117 DUP3 PUSH2 0xEC JUMP JUMPDEST SWAP1 POP SWAP2 SWAP1 POP JUMP JUMPDEST PUSH2 0x127 DUP2 PUSH2 0x10C JUMP JUMPDEST DUP2 EQ PUSH2 0x132 JUMPI PUSH1 0x0 DUP1 REVERT JUMPDEST POP JUMP JUMPDEST PUSH1 0x0 DUP2 MLOAD SWAP1 POP PUSH2 0x144 DUP2 PUSH2 0x11E JUMP JUMPDEST SWAP3 SWAP2 POP POP JUMP JUMPDEST PUSH1 0x0 PUSH1 0x20 DUP3 DUP5 SUB SLT ISZERO PUSH2 0x160 JUMPI PUSH2 0x15F PUSH2 0xE7 JUMP JUMPDEST JUMPDEST PUSH1 0x0 PUSH2 0x16E DUP5 DUP3 DUP6 ADD PUSH2 0x135 JUMP JUMPDEST SWAP2 POP POP SWAP3 SWAP2 POP POP JUMP JUMPDEST PUSH1 0x0 DUP3 DUP3 MSTORE PUSH1 0x20 DUP3 ADD SWAP1 POP SWAP3 SWAP2 POP POP JUMP JUMPDEST PUSH32 0x496E76616C69642073696E676C65746F6E20616464726573732070726F766964 PUSH1 0x0 DUP3 ADD MSTORE PUSH32 0x6564000000000000000000000000000000000000000000000000000000000000 PUSH1 0x20 DUP3 ADD MSTORE POP JUMP JUMPDEST PUSH1 0x0 PUSH2 0x1E4 PUSH1 0x22 DUP4 PUSH2 0x177 JUMP JUMPDEST SWAP2 POP PUSH2 0x1EF DUP3 PUSH2 0x188 JUMP JUMPDEST PUSH1 0x40 DUP3 ADD SWAP1 POP SWAP2 SWAP1 POP JUMP JUMPDEST PUSH1 0x0 PUSH1 0x20 DUP3 ADD SWAP1 POP DUP2 DUP2 SUB PUSH1 0x0 DUP4 ADD MSTORE PUSH2 0x213 DUP2 PUSH2 0x1D7 JUMP JUMPDEST SWAP1 POP SWAP2 SWAP1 POP JUMP JUMPDEST PUSH1 0xA9 DUP1 PUSH2 0x228 PUSH1 0x0 CODECOPY PUSH1 0x0 RETURN INVALID PUSH1 0x80 PUSH1 0x40 MSTORE PUSH20 0xFFFFFFFFFFFFFFFFFFFFFFFFFFFFFFFFFFFFFFFF PUSH1 0x0 SLOAD AND PUSH32 0xA619486E00000000000000000000000000000000000000000000000000000000 PUSH1 0x0 CALLDATALOAD SUB PUSH1 0x4F JUMPI DUP1 PUSH1 0x0 MSTORE PUSH1 0x20 PUSH1 0x0 RETURN JUMPDEST CALLDATASIZE PUSH1 0x0 DUP1 CALLDATACOPY PUSH1 0x0 DUP1 CALLDATASIZE PUSH1 0x0 DUP5 GAS DELEGATECALL RETURNDATASIZE PUSH1 0x0 DUP1 RETURNDATACOPY PUSH1 0x0 DUP2 SUB PUSH1 0x6E JUMPI RETURNDATASIZE PUSH1 0x0 REVERT JUMPDEST RETURNDATASIZE PUSH1 0x0 RETURN INVALID LOG2 PUSH5 0x6970667358 0x22 SLT KECCAK256 SWAP14 JUMP PUSH2 0xA637 SWAP5 SWAP13 EQ ORIGIN 0xC6 GAS NUMBER NOT 0xC0 PUSH6 0xD0806918A553 DUP8 0xAD GASLIMIT 0xE4 POP SWAP12 0x1F CALLDATALOAD 0xA9 PUSH19 0x64736F6C63430008130033608060405273FF SELFDESTRUCT SELFDESTRUCT SELFDESTRUCT SELFDESTRUCT SELFDESTRUCT SELFDESTRUCT SELFDESTRUCT SELFDESTRUCT SELFDESTRUCT SELFDESTRUCT SELFDESTRUCT SELFDESTRUCT SELFDESTRUCT SELFDESTRUCT SELFDESTRUCT SELFDESTRUCT SELFDESTRUCT SELFDESTRUCT SELFDESTRUCT PUSH1 0x0 SLOAD AND PUSH32 0xA619486E00000000000000000000000000000000000000000000000000000000 PUSH1 0x0 CALLDATALOAD SUB PUSH1 0x4F JUMPI DUP1 PUSH1 0x0 MSTORE PUSH1 0x20 PUSH1 0x0 RETURN JUMPDEST CALLDATASIZE PUSH1 0x0 DUP1 CALLDATACOPY PUSH1 0x0 DUP1 CALLDATASIZE PUSH1 0x0 DUP5 GAS DELEGATECALL RETURNDATASIZE PUSH1 0x0 DUP1 RETURNDATACOPY PUSH1 0x0 DUP2 SUB PUSH1 0x6E JUMPI RETURNDATASIZE PUSH1 0x0 REVERT JUMPDEST RETURNDATASIZE PUSH1 0x0 RETURN INVALID LOG2 PUSH5 0x6970667358 0x22 SLT KECCAK256 SWAP14 JUMP PUSH2 0xA637 SWAP5 SWAP13 EQ ORIGIN 0xC6 GAS NUMBER NOT 0xC0 PUSH6 0xD0806918A553 DUP8 0xAD GASLIMIT 0xE4 POP SWAP12 0x1F CALLDATALOAD 0xA9 PUSH19 0x64736F6C63430008130033A2646970667358 0x22 SLT KECCAK256 MOD SAR 0x26 TIMESTAMP 0xC9 0xB8 NOT PUSH3 0x2672F6 0xA7 JUMPDEST 0x26 PUSH1 0xAF 0xE3 SAR PREVRANDAO JUMP DUP1 PUSH32 0x8CDB526822B71ED022AF64736F6C634300081300330000000000000000000000 "},"methodIdentifiers":{"calculateCreateProxyWithNonceAddress(address,bytes,uint256)":"2500510e","createProxy(address,bytes)":"61b69abd","createProxyWithCallback(address,bytes,uint256,address)":"d18af54d","createProxyWithNonce(address,bytes,uint256)":"1688f0b9","proxyCreationCode()":"53e5d935","proxyRuntimeCode()":"addacc0f"}}}}}